{
  "contractName": "MessageRegistry",
  "abi": [
    {
      "anonymous": false,
      "inputs": [
        {
          "indexed": true,
          "internalType": "address",
          "name": "_sender",
          "type": "address"
        },
        {
          "components": [
            {
              "internalType": "address",
              "name": "sender",
              "type": "address"
            },
            {
              "internalType": "uint256",
              "name": "date",
              "type": "uint256"
            },
            {
              "internalType": "bytes",
              "name": "signature",
              "type": "bytes"
            }
          ],
          "indexed": false,
          "internalType": "struct MessageRegistry.Message",
          "name": "_message",
          "type": "tuple"
        }
      ],
      "name": "MessageStored",
      "type": "event"
    },
    {
      "inputs": [
        {
          "internalType": "bytes32",
          "name": "_hash",
          "type": "bytes32"
        },
        {
          "internalType": "bytes",
          "name": "_signature",
          "type": "bytes"
        }
      ],
      "name": "storeHash",
      "outputs": [],
      "stateMutability": "nonpayable",
      "type": "function"
    },
    {
      "inputs": [
        {
          "internalType": "bytes32",
          "name": "_hash",
          "type": "bytes32"
        }
      ],
      "name": "getMessage",
      "outputs": [
        {
          "components": [
            {
              "internalType": "address",
              "name": "sender",
              "type": "address"
            },
            {
              "internalType": "uint256",
              "name": "date",
              "type": "uint256"
            },
            {
              "internalType": "bytes",
              "name": "signature",
              "type": "bytes"
            }
          ],
          "internalType": "struct MessageRegistry.Message",
          "name": "",
          "type": "tuple"
        }
      ],
      "stateMutability": "view",
      "type": "function",
      "constant": true
    }
  ],
  "bytecode": "0x608060405234801561001057600080fd5b50610ac0806100206000396000f3fe608060405234801561001057600080fd5b50600436106100365760003560e01c80630139a2211461003b578063c83f3a791461006b575b600080fd5b6100556004803603810190610050919061031a565b610087565b6040516100629190610481565b60405180910390f35b610085600480360381019061008091906105d8565b6101a5565b005b61008f610299565b6000808381526020019081526020016000206040518060600160405290816000820160009054906101000a900473ffffffffffffffffffffffffffffffffffffffff1673ffffffffffffffffffffffffffffffffffffffff1673ffffffffffffffffffffffffffffffffffffffff1681526020016001820154815260200160028201805461011c90610663565b80601f016020809104026020016040519081016040528092919081815260200182805461014890610663565b80156101955780601f1061016a57610100808354040283529160200191610195565b820191906000526020600020905b81548152906001019060200180831161017857829003601f168201915b5050505050815250509050919050565b3360008084815260200190815260200160002060000160006101000a81548173ffffffffffffffffffffffffffffffffffffffff021916908373ffffffffffffffffffffffffffffffffffffffff16021790555042600080848152602001908152602001600020600101819055508060008084815260200190815260200160002060020190816102359190610840565b503373ffffffffffffffffffffffffffffffffffffffff167f7cefb6f1ab8e45807c98781e6787f07f30383da3e67b1fe447e363648efa6f4360008085815260200190815260200160002060405161028d9190610a68565b60405180910390a25050565b6040518060600160405280600073ffffffffffffffffffffffffffffffffffffffff16815260200160008152602001606081525090565b6000604051905090565b600080fd5b600080fd5b6000819050919050565b6102f7816102e4565b811461030257600080fd5b50565b600081359050610314816102ee565b92915050565b6000602082840312156103305761032f6102da565b5b600061033e84828501610305565b91505092915050565b600073ffffffffffffffffffffffffffffffffffffffff82169050919050565b600061037282610347565b9050919050565b61038281610367565b82525050565b6000819050919050565b61039b81610388565b82525050565b600081519050919050565b600082825260208201905092915050565b60005b838110156103db5780820151818401526020810190506103c0565b60008484015250505050565b6000601f19601f8301169050919050565b6000610403826103a1565b61040d81856103ac565b935061041d8185602086016103bd565b610426816103e7565b840191505092915050565b60006060830160008301516104496000860182610379565b50602083015161045c6020860182610392565b506040830151848203604086015261047482826103f8565b9150508091505092915050565b6000602082019050818103600083015261049b8184610431565b905092915050565b600080fd5b600080fd5b7f4e487b7100000000000000000000000000000000000000000000000000000000600052604160045260246000fd5b6104e5826103e7565b810181811067ffffffffffffffff82111715610504576105036104ad565b5b80604052505050565b60006105176102d0565b905061052382826104dc565b919050565b600067ffffffffffffffff821115610543576105426104ad565b5b61054c826103e7565b9050602081019050919050565b82818337600083830152505050565b600061057b61057684610528565b61050d565b905082815260208101848484011115610597576105966104a8565b5b6105a2848285610559565b509392505050565b600082601f8301126105bf576105be6104a3565b5b81356105cf848260208601610568565b91505092915050565b600080604083850312156105ef576105ee6102da565b5b60006105fd85828601610305565b925050602083013567ffffffffffffffff81111561061e5761061d6102df565b5b61062a858286016105aa565b9150509250929050565b7f4e487b7100000000000000000000000000000000000000000000000000000000600052602260045260246000fd5b6000600282049050600182168061067b57607f821691505b60208210810361068e5761068d610634565b5b50919050565b60008190508160005260206000209050919050565b60006020601f8301049050919050565b600082821b905092915050565b6000600883026106f67fffffffffffffffffffffffffffffffffffffffffffffffffffffffffffffffff826106b9565b61070086836106b9565b95508019841693508086168417925050509392505050565b6000819050919050565b600061073d61073861073384610388565b610718565b610388565b9050919050565b6000819050919050565b61075783610722565b61076b61076382610744565b8484546106c6565b825550505050565b600090565b610780610773565b61078b81848461074e565b505050565b5b818110156107af576107a4600082610778565b600181019050610791565b5050565b601f8211156107f4576107c581610694565b6107ce846106a9565b810160208510156107dd578190505b6107f16107e9856106a9565b830182610790565b50505b505050565b600082821c905092915050565b6000610817600019846008026107f9565b1980831691505092915050565b60006108308383610806565b9150826002028217905092915050565b610849826103a1565b67ffffffffffffffff811115610862576108616104ad565b5b61086c8254610663565b6108778282856107b3565b600060209050601f8311600181146108aa5760008415610898578287015190505b6108a28582610824565b86555061090a565b601f1984166108b886610694565b60005b828110156108e0578489015182556001820191506020850194506020810190506108bb565b868310156108fd57848901516108f9601f891682610806565b8355505b6001600288020188555050505b505050505050565b60008160001c9050919050565b600073ffffffffffffffffffffffffffffffffffffffff82169050919050565b600061095261094d83610912565b61091f565b9050919050565b6000819050919050565b600061097661097183610912565b610959565b9050919050565b6000815461098a81610663565b61099481866103ac565b945060018216600081146109af57600181146109c5576109f8565b60ff1983168652811515602002860193506109f8565b6109ce85610694565b60005b838110156109f0578154818901526001820191506020810190506109d1565b808801955050505b50505092915050565b6000606083016000808401549050610a188161093f565b610a256000870182610379565b5060018401549050610a3681610963565b610a436020870182610392565b50600284018583036040870152610a5a838261097d565b925050819250505092915050565b60006020820190508181036000830152610a828184610a01565b90509291505056fea2646970667358221220dd610874908427b54b8597d5d7fb1ef3953f811e65d3ac4dadf46af61fd9bdc764736f6c63430008110033",
  "immutableReferences": {},
  "source": "// SPDX-License-Identifier: MIT\npragma solidity >=0.8.17 <0.9.0;\n\ncontract MessageRegistry {\n  \n  struct Message {\n    address sender;\n    uint date;\n    bytes signature;\n  }\n\n  mapping(bytes32 => Message) registry;\n\n  function storeHash(bytes32 _hash, bytes memory _signature) external {\n    registry[_hash].sender = msg.sender;\n    registry[_hash].date = block.timestamp;\n    registry[_hash].signature = _signature;\n\n    emit MessageStored(msg.sender, registry[_hash]);\n  }\n\n  function getMessage(bytes32 _hash) public view virtual returns (Message memory) {\n    return registry[_hash];\n  }\n\n  event MessageStored(address indexed _sender, Message _message);\n  \n}\n",
  "sourcePath": "/home/rbgtk/projects/bc4p/pxl-pilot-wpt4/contracts/MessageRegistry.sol",
  "compiler": {
    "name": "solc",
    "version": "0.8.17+commit.8df45f5f.Emscripten.clang"
  },
  "schemaVersion": "3.4.13",
  "updatedAt": "2023-04-20T16:22:42.286Z",
  "networkType": "ethereum",
  "devdoc": {
    "kind": "dev",
    "methods": {},
    "version": 1
  },
  "userdoc": {
    "kind": "user",
    "methods": {},
    "version": 1
  }
}